{
  "contractName": "FlipBank",
  "abi": [
    {
      "inputs": [],
      "payable": false,
      "stateMutability": "nonpayable",
      "type": "constructor"
    },
    {
      "anonymous": false,
      "inputs": [
        {
          "indexed": false,
          "internalType": "address",
          "name": "account",
          "type": "address"
        },
        {
          "indexed": false,
          "internalType": "uint256",
          "name": "amount",
          "type": "uint256"
        },
        {
          "indexed": false,
          "internalType": "uint256",
          "name": "rate",
          "type": "uint256"
        }
      ],
      "name": "CoinsPurchased",
      "type": "event"
    },
    {
      "anonymous": false,
      "inputs": [
        {
          "indexed": false,
          "internalType": "address",
          "name": "account",
          "type": "address"
        },
        {
          "indexed": false,
          "internalType": "uint256",
          "name": "amount",
          "type": "uint256"
        },
        {
          "indexed": false,
          "internalType": "uint256",
          "name": "rate",
          "type": "uint256"
        }
      ],
      "name": "CoinsSold",
      "type": "event"
    },
    {
      "constant": true,
      "inputs": [],
      "name": "flipcoin",
      "outputs": [
        {
          "internalType": "contract FlipCoin",
          "name": "",
          "type": "address"
        }
      ],
      "payable": false,
      "stateMutability": "view",
      "type": "function"
    },
    {
      "constant": true,
      "inputs": [],
      "name": "name",
      "outputs": [
        {
          "internalType": "string",
          "name": "",
          "type": "string"
        }
      ],
      "payable": false,
      "stateMutability": "view",
      "type": "function"
    },
    {
      "constant": true,
      "inputs": [],
      "name": "owner",
      "outputs": [
        {
          "internalType": "address",
          "name": "",
          "type": "address"
        }
      ],
      "payable": false,
      "stateMutability": "view",
      "type": "function"
    },
    {
      "constant": true,
      "inputs": [],
      "name": "rate",
      "outputs": [
        {
          "internalType": "uint256",
          "name": "",
          "type": "uint256"
        }
      ],
      "payable": false,
      "stateMutability": "view",
      "type": "function"
    },
    {
      "constant": true,
      "inputs": [],
      "name": "sellers",
      "outputs": [
        {
          "internalType": "contract Seller",
          "name": "",
          "type": "address"
        }
      ],
      "payable": false,
      "stateMutability": "view",
      "type": "function"
    },
    {
      "constant": true,
      "inputs": [
        {
          "internalType": "string",
          "name": "",
          "type": "string"
        }
      ],
      "name": "sellersInfo",
      "outputs": [
        {
          "internalType": "address",
          "name": "",
          "type": "address"
        }
      ],
      "payable": false,
      "stateMutability": "view",
      "type": "function"
    },
    {
      "constant": false,
      "inputs": [],
      "name": "mintCoins",
      "outputs": [
        {
          "internalType": "bool",
          "name": "success",
          "type": "bool"
        }
      ],
      "payable": true,
      "stateMutability": "payable",
      "type": "function"
    },
    {
      "constant": false,
      "inputs": [],
      "name": "buyFlipCoins",
      "outputs": [],
      "payable": true,
      "stateMutability": "payable",
      "type": "function"
    },
    {
      "constant": false,
      "inputs": [
        {
          "internalType": "uint256",
          "name": "_amount",
          "type": "uint256"
        }
      ],
      "name": "sellFlipCoins",
      "outputs": [],
      "payable": false,
      "stateMutability": "nonpayable",
      "type": "function"
    },
    {
      "constant": false,
      "inputs": [
        {
          "internalType": "string",
          "name": "brand",
          "type": "string"
        },
        {
          "internalType": "uint256",
          "name": "_offer_rate",
          "type": "uint256"
        },
        {
          "internalType": "uint256",
          "name": "_offer_cap",
          "type": "uint256"
        },
        {
          "internalType": "uint256",
          "name": "_receive_rate",
          "type": "uint256"
        },
        {
          "internalType": "uint256",
          "name": "_receive_cap",
          "type": "uint256"
        }
      ],
      "name": "registerSeller",
      "outputs": [
        {
          "internalType": "bool",
          "name": "success",
          "type": "bool"
        }
      ],
      "payable": false,
      "stateMutability": "nonpayable",
      "type": "function"
    },
    {
      "constant": false,
      "inputs": [
        {
          "internalType": "string",
          "name": "brand",
          "type": "string"
        },
        {
          "internalType": "uint256",
          "name": "_offer_rate",
          "type": "uint256"
        },
        {
          "internalType": "uint256",
          "name": "_offer_cap",
          "type": "uint256"
        },
        {
          "internalType": "uint256",
          "name": "_receive_rate",
          "type": "uint256"
        },
        {
          "internalType": "uint256",
          "name": "_receive_cap",
          "type": "uint256"
        }
      ],
      "name": "updateSeller",
      "outputs": [
        {
          "internalType": "bool",
          "name": "success",
          "type": "bool"
        }
      ],
      "payable": false,
      "stateMutability": "nonpayable",
      "type": "function"
    },
    {
      "constant": true,
      "inputs": [
        {
          "internalType": "string",
          "name": "brand",
          "type": "string"
        }
      ],
      "name": "getSellerInfo",
      "outputs": [
        {
          "internalType": "uint256",
          "name": "_offer_rate",
          "type": "uint256"
        },
        {
          "internalType": "uint256",
          "name": "_offer_cap",
          "type": "uint256"
        },
        {
          "internalType": "uint256",
          "name": "_receive_rate",
          "type": "uint256"
        },
        {
          "internalType": "uint256",
          "name": "_receive_cap",
          "type": "uint256"
        }
      ],
      "payable": false,
      "stateMutability": "view",
      "type": "function"
    },
    {
      "constant": true,
      "inputs": [
        {
          "internalType": "string",
          "name": "key",
          "type": "string"
        }
      ],
      "name": "getValue",
      "outputs": [
        {
          "internalType": "address",
          "name": "a",
          "type": "address"
        }
      ],
      "payable": false,
      "stateMutability": "view",
      "type": "function"
    },
    {
      "constant": false,
      "inputs": [
        {
          "internalType": "uint256",
          "name": "_reward",
          "type": "uint256"
        },
        {
          "internalType": "string",
          "name": "brand",
          "type": "string"
        }
      ],
      "name": "rewardUser",
      "outputs": [
        {
          "internalType": "bool",
          "name": "success",
          "type": "bool"
        }
      ],
      "payable": false,
      "stateMutability": "nonpayable",
      "type": "function"
    },
    {
      "constant": false,
      "inputs": [
        {
          "internalType": "uint256",
          "name": "_amount",
          "type": "uint256"
        },
        {
          "internalType": "string",
          "name": "brand",
          "type": "string"
        }
      ],
      "name": "redeemCoins",
      "outputs": [
        {
          "internalType": "bool",
          "name": "success",
          "type": "bool"
        }
      ],
      "payable": false,
      "stateMutability": "nonpayable",
      "type": "function"
    },
    {
      "constant": true,
      "inputs": [],
      "name": "getWalletBalance",
      "outputs": [
        {
          "internalType": "uint256",
          "name": "balance",
          "type": "uint256"
        }
      ],
      "payable": false,
      "stateMutability": "view",
      "type": "function"
    },
    {
      "constant": true,
      "inputs": [],
      "name": "getSpendings",
      "outputs": [
        {
          "internalType": "uint256",
          "name": "spend",
          "type": "uint256"
        }
      ],
      "payable": false,
      "stateMutability": "view",
      "type": "function"
    }
  ],
  "bytecode": "0x60806040526040518060400160405280601181526020017f466c6970436f696e2045786368616e6765000000000000000000000000000000815250600190805190602001906200005192919062000187565b5064e8d4a510006004553480156200006857600080fd5b50336000806101000a81548173ffffffffffffffffffffffffffffffffffffffff021916908373ffffffffffffffffffffffffffffffffffffffff160217905550604051620000b7906200020e565b604051809103906000f080158015620000d4573d6000803e3d6000fd5b50600260006101000a81548173ffffffffffffffffffffffffffffffffffffffff021916908373ffffffffffffffffffffffffffffffffffffffff16021790555060405162000123906200021c565b604051809103906000f08015801562000140573d6000803e3d6000fd5b50600360006101000a81548173ffffffffffffffffffffffffffffffffffffffff021916908373ffffffffffffffffffffffffffffffffffffffff16021790555062000252565b828054600181600116156101000203166002900490600052602060002090601f016020900481019282601f10620001ca57805160ff1916838001178555620001fb565b82800160010185558215620001fb579182015b82811115620001fa578251825591602001919060010190620001dd565b5b5090506200020a91906200022a565b5090565b61184c8062001e4783390190565b610bed806200369383390190565b6200024f91905b808211156200024b57600081600090555060010162000231565b5090565b90565b611be580620002626000396000f3fe6080604052600436106100fe5760003560e01c8063798907c111610095578063c07d8cd411610064578063c07d8cd414610352578063d520edb914610392578063dac84a30146103bd578063ec3916f1146103fa578063f2fe6e9814610425576100fe565b8063798907c1146102a15780638da5cb5b146102bf578063960384a0146102ea5780639c195c2f14610327576100fe565b80632c4e722e116100d15780632c4e722e146101d1578063325cdb8d146101fc578063329a27e71461023957806340675d6b14610264576100fe565b806306fdde03146101035780630b4c96fd1461012e57806316d8e9111461016b57806318a0a36e14610194575b600080fd5b34801561010f57600080fd5b5061011861042f565b6040516101259190611902565b60405180910390f35b34801561013a57600080fd5b5061015560048036036101509190810190611588565b6104cd565b60405161016291906118b1565b60405180910390f35b34801561017757600080fd5b50610192600480360361018d9190810190611536565b610680565b005b3480156101a057600080fd5b506101bb60048036036101b69190810190611588565b610891565b6040516101c891906118b1565b60405180910390f35b3480156101dd57600080fd5b506101e6610a82565b6040516101f39190611944565b60405180910390f35b34801561020857600080fd5b50610223600480360361021e9190810190611425565b610a88565b604051610230919061175a565b60405180910390f35b34801561024557600080fd5b5061024e610ad1565b60405161025b9190611944565b60405180910390f35b34801561027057600080fd5b5061028b600480360361028691908101906114a7565b610b83565b60405161029891906118b1565b60405180910390f35b6102a9610d1b565b6040516102b691906118b1565b60405180910390f35b3480156102cb57600080fd5b506102d4610e71565b6040516102e1919061175a565b60405180910390f35b3480156102f657600080fd5b50610311600480360361030c9190810190611466565b610e96565b60405161031e919061175a565b60405180910390f35b34801561033357600080fd5b5061033c610ede565b6040516103499190611944565b60405180910390f35b34801561035e57600080fd5b5061037960048036036103749190810190611466565b610f90565b604051610389949392919061195f565b60405180910390f35b34801561039e57600080fd5b506103a761108e565b6040516103b491906118e7565b60405180910390f35b3480156103c957600080fd5b506103e460048036036103df91908101906114a7565b6110b4565b6040516103f191906118b1565b60405180910390f35b34801561040657600080fd5b5061040f6111ef565b60405161041c91906118cc565b60405180910390f35b61042d611215565b005b60018054600181600116156101000203166002900480601f0160208091040260200160405190810160405280929190818152602001828054600181600116156101000203166002900480156104c55780601f1061049a576101008083540402835291602001916104c5565b820191906000526020600020905b8154815290600101906020018083116104a857829003601f168201915b505050505081565b600082600260009054906101000a900473ffffffffffffffffffffffffffffffffffffffff1673ffffffffffffffffffffffffffffffffffffffff1663f8b2cb4f336040518263ffffffff1660e01b815260040161052b9190611775565b60206040518083038186803b15801561054357600080fd5b505afa158015610557573d6000803e3d6000fd5b505050506040513d601f19601f8201168201806040525061057b919081019061155f565b101561058657600080fd5b600260009054906101000a900473ffffffffffffffffffffffffffffffffffffffff1673ffffffffffffffffffffffffffffffffffffffff166323b872dd336005856040516105d59190611743565b908152602001604051809103902060009054906101000a900473ffffffffffffffffffffffffffffffffffffffff16866040518463ffffffff1660e01b815260040161062393929190611790565b602060405180830381600087803b15801561063d57600080fd5b505af1158015610651573d6000803e3d6000fd5b505050506040513d601f19601f8201168201806040525061067591908101906113fc565b506001905092915050565b80600260009054906101000a900473ffffffffffffffffffffffffffffffffffffffff1673ffffffffffffffffffffffffffffffffffffffff166370a08231336040518263ffffffff1660e01b81526004016106dc9190611775565b60206040518083038186803b1580156106f457600080fd5b505afa158015610708573d6000803e3d6000fd5b505050506040513d601f19601f8201168201806040525061072c919081019061155f565b101561073757600080fd5b6000600a60045483028161074757fe5b0490508047101561075757600080fd5b600260009054906101000a900473ffffffffffffffffffffffffffffffffffffffff1673ffffffffffffffffffffffffffffffffffffffff166323b872dd3330856040518463ffffffff1660e01b81526004016107b693929190611790565b602060405180830381600087803b1580156107d057600080fd5b505af11580156107e4573d6000803e3d6000fd5b505050506040513d601f19601f8201168201806040525061080891908101906113fc565b503373ffffffffffffffffffffffffffffffffffffffff166108fc829081150290604051600060405180830381858888f1935050505015801561084f573d6000803e3d6000fd5b507ff5305275ae77093861dc6cd8f0d24bfc03188ff7b979a7e7732aff48473feaaa3382600454604051610885939291906117f0565b60405180910390a15050565b600082600260009054906101000a900473ffffffffffffffffffffffffffffffffffffffff1673ffffffffffffffffffffffffffffffffffffffff1663f8b2cb4f6005856040516108e29190611743565b908152602001604051809103902060009054906101000a900473ffffffffffffffffffffffffffffffffffffffff166040518263ffffffff1660e01b815260040161092d919061175a565b60206040518083038186803b15801561094557600080fd5b505afa158015610959573d6000803e3d6000fd5b505050506040513d601f19601f8201168201806040525061097d919081019061155f565b101561098857600080fd5b600260009054906101000a900473ffffffffffffffffffffffffffffffffffffffff1673ffffffffffffffffffffffffffffffffffffffff166323b872dd6005846040516109d69190611743565b908152602001604051809103902060009054906101000a900473ffffffffffffffffffffffffffffffffffffffff1633866040518463ffffffff1660e01b8152600401610a259392919061187a565b602060405180830381600087803b158015610a3f57600080fd5b505af1158015610a53573d6000803e3d6000fd5b505050506040513d601f19601f82011682018060405250610a7791908101906113fc565b506001905092915050565b60045481565b6005818051602081018201805184825260208301602085012081835280955050505050506000915054906101000a900473ffffffffffffffffffffffffffffffffffffffff1681565b6000600260009054906101000a900473ffffffffffffffffffffffffffffffffffffffff1673ffffffffffffffffffffffffffffffffffffffff1663f8b2cb4f336040518263ffffffff1660e01b8152600401610b2e9190611775565b60206040518083038186803b158015610b4657600080fd5b505afa158015610b5a573d6000803e3d6000fd5b505050506040513d601f19601f82011682018060405250610b7e919081019061155f565b905090565b60008073ffffffffffffffffffffffffffffffffffffffff16600587604051610bac9190611743565b908152602001604051809103902060009054906101000a900473ffffffffffffffffffffffffffffffffffffffff1673ffffffffffffffffffffffffffffffffffffffff1614610bfb57600080fd5b33600587604051610c0c9190611743565b908152602001604051809103902060006101000a81548173ffffffffffffffffffffffffffffffffffffffff021916908373ffffffffffffffffffffffffffffffffffffffff160217905550600360009054906101000a900473ffffffffffffffffffffffffffffffffffffffff1673ffffffffffffffffffffffffffffffffffffffff1663a57ce7cf33878787876040518663ffffffff1660e01b8152600401610cbb959493929190611827565b602060405180830381600087803b158015610cd557600080fd5b505af1158015610ce9573d6000803e3d6000fd5b505050506040513d601f19601f82011682018060405250610d0d91908101906113fc565b506001905095945050505050565b60008060009054906101000a900473ffffffffffffffffffffffffffffffffffffffff168073ffffffffffffffffffffffffffffffffffffffff163373ffffffffffffffffffffffffffffffffffffffff1614610dad576040517f08c379a0000000000000000000000000000000000000000000000000000000008152600401610da490611924565b60405180910390fd5b600260009054906101000a900473ffffffffffffffffffffffffffffffffffffffff1673ffffffffffffffffffffffffffffffffffffffff1663a77b6efb60646004543481610df857fe5b04026040518263ffffffff1660e01b8152600401610e169190611944565b602060405180830381600087803b158015610e3057600080fd5b505af1158015610e44573d6000803e3d6000fd5b505050506040513d601f19601f82011682018060405250610e6891908101906113fc565b50600191505090565b6000809054906101000a900473ffffffffffffffffffffffffffffffffffffffff1681565b6000600582604051610ea89190611743565b908152602001604051809103902060009054906101000a900473ffffffffffffffffffffffffffffffffffffffff169050919050565b6000600260009054906101000a900473ffffffffffffffffffffffffffffffffffffffff1673ffffffffffffffffffffffffffffffffffffffff1663ba09fe67336040518263ffffffff1660e01b8152600401610f3b9190611775565b60206040518083038186803b158015610f5357600080fd5b505afa158015610f67573d6000803e3d6000fd5b505050506040513d601f19601f82011682018060405250610f8b919081019061155f565b905090565b600080600080600360009054906101000a900473ffffffffffffffffffffffffffffffffffffffff1673ffffffffffffffffffffffffffffffffffffffff1663cf317b7e600587604051610fe49190611743565b908152602001604051809103902060009054906101000a900473ffffffffffffffffffffffffffffffffffffffff166040518263ffffffff1660e01b815260040161102f919061175a565b60806040518083038186803b15801561104757600080fd5b505afa15801561105b573d6000803e3d6000fd5b505050506040513d601f19601f8201168201806040525061107f91908101906115dc565b93509350935093509193509193565b600360009054906101000a900473ffffffffffffffffffffffffffffffffffffffff1681565b60003373ffffffffffffffffffffffffffffffffffffffff166005876040516110dd9190611743565b908152602001604051809103902060009054906101000a900473ffffffffffffffffffffffffffffffffffffffff1673ffffffffffffffffffffffffffffffffffffffff161461112c57600080fd5b600360009054906101000a900473ffffffffffffffffffffffffffffffffffffffff1673ffffffffffffffffffffffffffffffffffffffff16632317f1dd33878787876040518663ffffffff1660e01b815260040161118f959493929190611827565b602060405180830381600087803b1580156111a957600080fd5b505af11580156111bd573d6000803e3d6000fd5b505050506040513d601f19601f820116820180604052506111e191908101906113fc565b506001905095945050505050565b600260009054906101000a900473ffffffffffffffffffffffffffffffffffffffff1681565b6000600454348161122257fe5b049050600260009054906101000a900473ffffffffffffffffffffffffffffffffffffffff1673ffffffffffffffffffffffffffffffffffffffff1663a9059cbb33836040518363ffffffff1660e01b81526004016112829291906117c7565b602060405180830381600087803b15801561129c57600080fd5b505af11580156112b0573d6000803e3d6000fd5b505050506040513d601f19601f820116820180604052506112d491908101906113fc565b507fe42c627940ae035b15bcb45ba29d47ff8b9716b27a4b993b5513d8c0516dc1ed333460045460405161130a939291906117f0565b60405180910390a150565b60008151905061132481611b74565b92915050565b600082601f83011261133b57600080fd5b813561134e611349826119d1565b6119a4565b9150808252602083016020830185838301111561136a57600080fd5b611375838284611b21565b50505092915050565b600082601f83011261138f57600080fd5b81356113a261139d826119fd565b6119a4565b915080825260208301602083018583830111156113be57600080fd5b6113c9838284611b21565b50505092915050565b6000813590506113e181611b8b565b92915050565b6000815190506113f681611b8b565b92915050565b60006020828403121561140e57600080fd5b600061141c84828501611315565b91505092915050565b60006020828403121561143757600080fd5b600082013567ffffffffffffffff81111561145157600080fd5b61145d8482850161132a565b91505092915050565b60006020828403121561147857600080fd5b600082013567ffffffffffffffff81111561149257600080fd5b61149e8482850161137e565b91505092915050565b600080600080600060a086880312156114bf57600080fd5b600086013567ffffffffffffffff8111156114d957600080fd5b6114e58882890161137e565b95505060206114f6888289016113d2565b9450506040611507888289016113d2565b9350506060611518888289016113d2565b9250506080611529888289016113d2565b9150509295509295909350565b60006020828403121561154857600080fd5b6000611556848285016113d2565b91505092915050565b60006020828403121561157157600080fd5b600061157f848285016113e7565b91505092915050565b6000806040838503121561159b57600080fd5b60006115a9858286016113d2565b925050602083013567ffffffffffffffff8111156115c657600080fd5b6115d28582860161137e565b9150509250929050565b600080600080608085870312156115f257600080fd5b6000611600878288016113e7565b9450506020611611878288016113e7565b9350506040611622878288016113e7565b9250506060611633878288016113e7565b91505092959194509250565b61164881611aa3565b82525050565b61165781611a5b565b82525050565b61166681611a6d565b82525050565b61167581611ab5565b82525050565b61168481611ad9565b82525050565b600061169582611a34565b61169f8185611a50565b93506116af818560208601611b30565b80840191505092915050565b60006116c682611a29565b6116d08185611a3f565b93506116e0818560208601611b30565b6116e981611b63565b840191505092915050565b6000611701601683611a3f565b91507f53656e646572206e6f7420617574686f72697a65642e000000000000000000006000830152602082019050919050565b61173d81611a99565b82525050565b600061174f828461168a565b915081905092915050565b600060208201905061176f600083018461164e565b92915050565b600060208201905061178a600083018461163f565b92915050565b60006060820190506117a5600083018661163f565b6117b2602083018561164e565b6117bf6040830184611734565b949350505050565b60006040820190506117dc600083018561163f565b6117e96020830184611734565b9392505050565b6000606082019050611805600083018661163f565b6118126020830185611734565b61181f6040830184611734565b949350505050565b600060a08201905061183c600083018861163f565b6118496020830187611734565b6118566040830186611734565b6118636060830185611734565b6118706080830184611734565b9695505050505050565b600060608201905061188f600083018661164e565b61189c602083018561163f565b6118a96040830184611734565b949350505050565b60006020820190506118c6600083018461165d565b92915050565b60006020820190506118e1600083018461166c565b92915050565b60006020820190506118fc600083018461167b565b92915050565b6000602082019050818103600083015261191c81846116bb565b905092915050565b6000602082019050818103600083015261193d816116f4565b9050919050565b60006020820190506119596000830184611734565b92915050565b60006080820190506119746000830187611734565b6119816020830186611734565b61198e6040830185611734565b61199b6060830184611734565b95945050505050565b6000604051905081810181811067ffffffffffffffff821117156119c757600080fd5b8060405250919050565b600067ffffffffffffffff8211156119e857600080fd5b601f19601f8301169050602081019050919050565b600067ffffffffffffffff821115611a1457600080fd5b601f19601f8301169050602081019050919050565b600081519050919050565b600081519050919050565b600082825260208201905092915050565b600081905092915050565b6000611a6682611a79565b9050919050565b60008115159050919050565b600073ffffffffffffffffffffffffffffffffffffffff82169050919050565b6000819050919050565b6000611aae82611afd565b9050919050565b6000611ac082611ac7565b9050919050565b6000611ad282611a79565b9050919050565b6000611ae482611aeb565b9050919050565b6000611af682611a79565b9050919050565b6000611b0882611b0f565b9050919050565b6000611b1a82611a79565b9050919050565b82818337600083830152505050565b60005b83811015611b4e578082015181840152602081019050611b33565b83811115611b5d576000848401525b50505050565b6000601f19601f8301169050919050565b611b7d81611a6d565b8114611b8857600080fd5b50565b611b9481611a99565b8114611b9f57600080fd5b5056fea365627a7a723158201d5bce020019e919cb513ee2c088b006ab3a5d7e99a56045dabd126da3183df46c6578706572696d656e74616cf564736f6c6343000510004060806040526040518060400160405280600881526020017f466c6970436f696e000000000000000000000000000000000000000000000000815250600090805190602001906200005192919062000184565b506040518060400160405280600881526020017f466c6970436f696e000000000000000000000000000000000000000000000000815250600290805190602001906200009f92919062000184565b506402540be4006003556012600460006101000a81548160ff021916908360ff160217905550348015620000d257600080fd5b506305f5e10060056000600160009054906101000a900473ffffffffffffffffffffffffffffffffffffffff1673ffffffffffffffffffffffffffffffffffffffff1673ffffffffffffffffffffffffffffffffffffffff1681526020019081526020016000208190555033600160006101000a81548173ffffffffffffffffffffffffffffffffffffffff021916908373ffffffffffffffffffffffffffffffffffffffff16021790555062000233565b828054600181600116156101000203166002900490600052602060002090601f016020900481019282601f10620001c757805160ff1916838001178555620001f8565b82800160010185558215620001f8579182015b82811115620001f7578251825591602001919060010190620001da565b5b5090506200020791906200020b565b5090565b6200023091905b808211156200022c57600081600090555060010162000212565b5090565b90565b61160980620002436000396000f3fe608060405234801561001057600080fd5b50600436106100f55760003560e01c806383920e9011610097578063b842ec4411610066578063b842ec44146102b0578063ba09fe67146102e3578063dd62ed3e14610313578063f8b2cb4f14610343576100f5565b806383920e901461021457806395d89b4114610232578063a77b6efb14610250578063a9059cbb14610280576100f5565b806323b872dd116100d357806323b872dd14610166578063313ce5671461019657806351c28041146101b457806370a08231146101e4576100f5565b806306fdde03146100fa578063095ea7b31461011857806318160ddd14610148575b600080fd5b610102610373565b60405161010f91906113ed565b60405180910390f35b610132600480360361012d91908101906111ad565b610411565b60405161013f91906113d2565b60405180910390f35b610150610503565b60405161015d919061142f565b60405180910390f35b610180600480360361017b919081019061115e565b610509565b60405161018d91906113d2565b60405180910390f35b61019e6108c2565b6040516101ab919061148f565b60405180910390f35b6101ce60048036036101c991908101906110f9565b6108d5565b6040516101db919061142f565b60405180910390f35b6101fe60048036036101f991908101906110f9565b6108ed565b60405161020b919061142f565b60405180910390f35b61021c610905565b60405161022991906113b0565b60405180910390f35b61023a610a15565b60405161024791906113ed565b60405180910390f35b61026a600480360361026591908101906111e9565b610ab3565b60405161027791906113d2565b60405180910390f35b61029a600480360361029591908101906111ad565b610bf6565b6040516102a791906113d2565b60405180910390f35b6102ca60048036036102c591908101906111ad565b610fae565b6040516102da949392919061144a565b60405180910390f35b6102fd60048036036102f891908101906110f9565b611018565b60405161030a919061142f565b60405180910390f35b61032d60048036036103289190810190611122565b611061565b60405161033a919061142f565b60405180910390f35b61035d600480360361035891908101906110f9565b611086565b60405161036a919061142f565b60405180910390f35b60008054600181600116156101000203166002900480601f0160208091040260200160405190810160405280929190818152602001828054600181600116156101000203166002900480156104095780601f106103de57610100808354040283529160200191610409565b820191906000526020600020905b8154815290600101906020018083116103ec57829003601f168201915b505050505081565b600081600760003373ffffffffffffffffffffffffffffffffffffffff1673ffffffffffffffffffffffffffffffffffffffff16815260200190815260200160002060008573ffffffffffffffffffffffffffffffffffffffff1673ffffffffffffffffffffffffffffffffffffffff168152602001908152602001600020819055508273ffffffffffffffffffffffffffffffffffffffff163373ffffffffffffffffffffffffffffffffffffffff167f8c5be1e5ebec7d5bd14f71427d1e84f3dd0314c0f7b2291e5b200ac8c7c3b925846040516104f1919061142f565b60405180910390a36001905092915050565b60035481565b6000600560008573ffffffffffffffffffffffffffffffffffffffff1673ffffffffffffffffffffffffffffffffffffffff1681526020019081526020016000205482111561055757600080fd5b81600560008673ffffffffffffffffffffffffffffffffffffffff1673ffffffffffffffffffffffffffffffffffffffff1681526020019081526020016000206000828254039250508190555081600660008673ffffffffffffffffffffffffffffffffffffffff1673ffffffffffffffffffffffffffffffffffffffff1681526020019081526020016000206000828254019250508190555081600560008573ffffffffffffffffffffffffffffffffffffffff1673ffffffffffffffffffffffffffffffffffffffff16815260200190815260200160002060008282540192505081905550600860008573ffffffffffffffffffffffffffffffffffffffff1673ffffffffffffffffffffffffffffffffffffffff1681526020019081526020016000206040518060800160405280600081526020018573ffffffffffffffffffffffffffffffffffffffff16815260200184815260200142815250908060018154018082558091505090600182039060005260206000209060040201600090919290919091506000820151816000015560208201518160010160006101000a81548173ffffffffffffffffffffffffffffffffffffffff021916908373ffffffffffffffffffffffffffffffffffffffff1602179055506040820151816002015560608201518160030155505050600860008473ffffffffffffffffffffffffffffffffffffffff1673ffffffffffffffffffffffffffffffffffffffff1681526020019081526020016000206040518060800160405280600181526020018673ffffffffffffffffffffffffffffffffffffffff16815260200184815260200142815250908060018154018082558091505090600182039060005260206000209060040201600090919290919091506000820151816000015560208201518160010160006101000a81548173ffffffffffffffffffffffffffffffffffffffff021916908373ffffffffffffffffffffffffffffffffffffffff16021790555060408201518160020155606082015181600301555050508273ffffffffffffffffffffffffffffffffffffffff168473ffffffffffffffffffffffffffffffffffffffff167fddf252ad1be2c89b69c2b068fc378daa952ba7f163c4a11628f55a4df523b3ef846040516108af919061142f565b60405180910390a3600190509392505050565b600460009054906101000a900460ff1681565b60066020528060005260406000206000915090505481565b60056020528060005260406000206000915090505481565b6060600860003373ffffffffffffffffffffffffffffffffffffffff1673ffffffffffffffffffffffffffffffffffffffff168152602001908152602001600020805480602002602001604051908101604052809291908181526020016000905b82821015610a0c5783829060005260206000209060040201604051806080016040529081600082015481526020016001820160009054906101000a900473ffffffffffffffffffffffffffffffffffffffff1673ffffffffffffffffffffffffffffffffffffffff1673ffffffffffffffffffffffffffffffffffffffff1681526020016002820154815260200160038201548152505081526020019060010190610966565b50505050905090565b60028054600181600116156101000203166002900480601f016020809104026020016040519081016040528092919081815260200182805460018160011615610100020316600290048015610aab5780601f10610a8057610100808354040283529160200191610aab565b820191906000526020600020905b815481529060010190602001808311610a8e57829003601f168201915b505050505081565b6000600160009054906101000a900473ffffffffffffffffffffffffffffffffffffffff168073ffffffffffffffffffffffffffffffffffffffff163373ffffffffffffffffffffffffffffffffffffffff1614610b46576040517f08c379a0000000000000000000000000000000000000000000000000000000008152600401610b3d9061140f565b60405180910390fd5b8260056000600160009054906101000a900473ffffffffffffffffffffffffffffffffffffffff1673ffffffffffffffffffffffffffffffffffffffff1673ffffffffffffffffffffffffffffffffffffffff168152602001908152602001600020600082825401925050819055507f652ca75881aecc21a17f6599ddea8106b8cc350490ae7dc196e9d6bb9ca6bbf583604051610be4919061142f565b60405180910390a16001915050919050565b600081600560003373ffffffffffffffffffffffffffffffffffffffff1673ffffffffffffffffffffffffffffffffffffffff168152602001908152602001600020541015610c4457600080fd5b81600560003373ffffffffffffffffffffffffffffffffffffffff1673ffffffffffffffffffffffffffffffffffffffff1681526020019081526020016000206000828254039250508190555081600660003373ffffffffffffffffffffffffffffffffffffffff1673ffffffffffffffffffffffffffffffffffffffff1681526020019081526020016000206000828254019250508190555081600560008573ffffffffffffffffffffffffffffffffffffffff1673ffffffffffffffffffffffffffffffffffffffff16815260200190815260200160002060008282540192505081905550600860008473ffffffffffffffffffffffffffffffffffffffff1673ffffffffffffffffffffffffffffffffffffffff1681526020019081526020016000206040518060800160405280600181526020013373ffffffffffffffffffffffffffffffffffffffff16815260200184815260200142815250908060018154018082558091505090600182039060005260206000209060040201600090919290919091506000820151816000015560208201518160010160006101000a81548173ffffffffffffffffffffffffffffffffffffffff021916908373ffffffffffffffffffffffffffffffffffffffff1602179055506040820151816002015560608201518160030155505050600860003373ffffffffffffffffffffffffffffffffffffffff1673ffffffffffffffffffffffffffffffffffffffff1681526020019081526020016000206040518060800160405280600081526020018573ffffffffffffffffffffffffffffffffffffffff16815260200184815260200142815250908060018154018082558091505090600182039060005260206000209060040201600090919290919091506000820151816000015560208201518160010160006101000a81548173ffffffffffffffffffffffffffffffffffffffff021916908373ffffffffffffffffffffffffffffffffffffffff16021790555060408201518160020155606082015181600301555050508273ffffffffffffffffffffffffffffffffffffffff163373ffffffffffffffffffffffffffffffffffffffff167fddf252ad1be2c89b69c2b068fc378daa952ba7f163c4a11628f55a4df523b3ef84604051610f9c919061142f565b60405180910390a36001905092915050565b60086020528160005260406000208181548110610fc757fe5b9060005260206000209060040201600091509150508060000154908060010160009054906101000a900473ffffffffffffffffffffffffffffffffffffffff16908060020154908060030154905084565b6000600660008373ffffffffffffffffffffffffffffffffffffffff1673ffffffffffffffffffffffffffffffffffffffff168152602001908152602001600020549050919050565b6007602052816000526040600020602052806000526040600020600091509150505481565b6000600560008373ffffffffffffffffffffffffffffffffffffffff1673ffffffffffffffffffffffffffffffffffffffff168152602001908152602001600020549050919050565b6000813590506110de81611598565b92915050565b6000813590506110f3816115af565b92915050565b60006020828403121561110b57600080fd5b6000611119848285016110cf565b91505092915050565b6000806040838503121561113557600080fd5b6000611143858286016110cf565b9250506020611154858286016110cf565b9150509250929050565b60008060006060848603121561117357600080fd5b6000611181868287016110cf565b9350506020611192868287016110cf565b92505060406111a3868287016110e4565b9150509250925092565b600080604083850312156111c057600080fd5b60006111ce858286016110cf565b92505060206111df858286016110e4565b9150509250929050565b6000602082840312156111fb57600080fd5b6000611209848285016110e4565b91505092915050565b600061121e838361132e565b60808301905092915050565b611233816114ff565b82525050565b611242816114ff565b82525050565b6000611253826114ba565b61125d81856114dd565b9350611268836114aa565b8060005b838110156112995781516112808882611212565b975061128b836114d0565b92505060018101905061126c565b5085935050505092915050565b6112af81611511565b82525050565b60006112c0826114c5565b6112ca81856114ee565b93506112da818560208601611554565b6112e381611587565b840191505092915050565b60006112fb6016836114ee565b91507f53656e646572206e6f7420617574686f72697a65642e000000000000000000006000830152602082019050919050565b6080820160008201516113446000850182611383565b506020820151611357602085018261122a565b50604082015161136a6040850182611383565b50606082015161137d6060850182611383565b50505050565b61138c8161153d565b82525050565b61139b8161153d565b82525050565b6113aa81611547565b82525050565b600060208201905081810360008301526113ca8184611248565b905092915050565b60006020820190506113e760008301846112a6565b92915050565b6000602082019050818103600083015261140781846112b5565b905092915050565b60006020820190508181036000830152611428816112ee565b9050919050565b60006020820190506114446000830184611392565b92915050565b600060808201905061145f6000830187611392565b61146c6020830186611239565b6114796040830185611392565b6114866060830184611392565b95945050505050565b60006020820190506114a460008301846113a1565b92915050565b6000819050602082019050919050565b600081519050919050565b600081519050919050565b6000602082019050919050565b600082825260208201905092915050565b600082825260208201905092915050565b600061150a8261151d565b9050919050565b60008115159050919050565b600073ffffffffffffffffffffffffffffffffffffffff82169050919050565b6000819050919050565b600060ff82169050919050565b60005b83811015611572578082015181840152602081019050611557565b83811115611581576000848401525b50505050565b6000601f19601f8301169050919050565b6115a1816114ff565b81146115ac57600080fd5b50565b6115b88161153d565b81146115c357600080fd5b5056fea365627a7a72315820354abfdca34eedccf1d2848d84ebf0c8046c0289f48cd2c8e3c58d2e6b5d871b6c6578706572696d656e74616cf564736f6c6343000510004060806040526040518060400160405280600681526020017f53656c6c657200000000000000000000000000000000000000000000000000008152506000908051906020019061004f9291906100ae565b506040518060400160405280600b81526020017f53656c6c6572734c6973740000000000000000000000000000000000000000008152506001908051906020019061009b9291906100ae565b503480156100a857600080fd5b50610153565b828054600181600116156101000203166002900490600052602060002090601f016020900481019282601f106100ef57805160ff191683800117855561011d565b8280016001018555821561011d579182015b8281111561011c578251825591602001919060010190610101565b5b50905061012a919061012e565b5090565b61015091905b8082111561014c576000816000905550600101610134565b5090565b90565b610a8b806101626000396000f3fe608060405234801561001057600080fd5b506004361061007d5760003560e01c806395d89b411161005b57806395d89b41146101f6578063a57ce7cf14610279578063c3c5a547146102fd578063cf317b7e146103595761007d565b806306fdde031461008257806316415a02146101055780632317f1dd14610172575b600080fd5b61008a6103c6565b6040518080602001828103825283818151815260200191508051906020019080838360005b838110156100ca5780820151818401526020810190506100af565b50505050905090810190601f1680156100f75780820380516001836020036101000a031916815260200191505b509250505060405180910390f35b6101476004803603602081101561011b57600080fd5b81019080803573ffffffffffffffffffffffffffffffffffffffff169060200190929190505050610464565b6040518085815260200184815260200183815260200182815260200194505050505060405180910390f35b6101dc600480360360a081101561018857600080fd5b81019080803573ffffffffffffffffffffffffffffffffffffffff16906020019092919080359060200190929190803590602001909291908035906020019092919080359060200190929190505050610494565b604051808215151515815260200191505060405180910390f35b6101fe6106a5565b6040518080602001828103825283818151815260200191508051906020019080838360005b8381101561023e578082015181840152602081019050610223565b50505050905090810190601f16801561026b5780820380516001836020036101000a031916815260200191505b509250505060405180910390f35b6102e3600480360360a081101561028f57600080fd5b81019080803573ffffffffffffffffffffffffffffffffffffffff16906020019092919080359060200190929190803590602001909291908035906020019092919080359060200190929190505050610743565b604051808215151515815260200191505060405180910390f35b61033f6004803603602081101561031357600080fd5b81019080803573ffffffffffffffffffffffffffffffffffffffff1690602001909291905050506108b8565b604051808215151515815260200191505060405180910390f35b61039b6004803603602081101561036f57600080fd5b81019080803573ffffffffffffffffffffffffffffffffffffffff1690602001909291905050506108d8565b6040518085815260200184815260200183815260200182815260200194505050505060405180910390f35b60008054600181600116156101000203166002900480601f01602080910402602001604051908101604052809291908181526020018280546001816001161561010002031660029004801561045c5780601f106104315761010080835404028352916020019161045c565b820191906000526020600020905b81548152906001019060200180831161043f57829003601f168201915b505050505081565b60026020528060005260406000206000915090508060000154908060010154908060020154908060030154905084565b600060011515600360008873ffffffffffffffffffffffffffffffffffffffff1673ffffffffffffffffffffffffffffffffffffffff16815260200190815260200160002060009054906101000a900460ff16151514156106975784600260008873ffffffffffffffffffffffffffffffffffffffff1673ffffffffffffffffffffffffffffffffffffffff1681526020019081526020016000206000018190555082600260008873ffffffffffffffffffffffffffffffffffffffff1673ffffffffffffffffffffffffffffffffffffffff1681526020019081526020016000206002018190555081600260008873ffffffffffffffffffffffffffffffffffffffff1673ffffffffffffffffffffffffffffffffffffffff1681526020019081526020016000206003018190555083600260008873ffffffffffffffffffffffffffffffffffffffff1673ffffffffffffffffffffffffffffffffffffffff168152602001908152602001600020600101819055507fe6ce7264f267f0a667a771e0ef2cfe72f277f7493e9779196a521f4d1fe21a958686868686604051808673ffffffffffffffffffffffffffffffffffffffff1673ffffffffffffffffffffffffffffffffffffffff1681526020018581526020018481526020018381526020018281526020019550505050505060405180910390a16001905061069c565b600090505b95945050505050565b60018054600181600116156101000203166002900480601f01602080910402602001604051908101604052809291908181526020018280546001816001161561010002031660029004801561073b5780601f106107105761010080835404028352916020019161073b565b820191906000526020600020905b81548152906001019060200180831161071e57829003601f168201915b505050505081565b6000604051806080016040528086815260200185815260200184815260200183815250600260008873ffffffffffffffffffffffffffffffffffffffff1673ffffffffffffffffffffffffffffffffffffffff168152602001908152602001600020600082015181600001556020820151816001015560408201518160020155606082015181600301559050506001600360008873ffffffffffffffffffffffffffffffffffffffff1673ffffffffffffffffffffffffffffffffffffffff16815260200190815260200160002060006101000a81548160ff0219169083151502179055507f632b32112d65ab07747b8108061d2b9605a7d5879d080741e0aebab26ee68ac18686868686604051808673ffffffffffffffffffffffffffffffffffffffff1673ffffffffffffffffffffffffffffffffffffffff1681526020018581526020018481526020018381526020018281526020019550505050505060405180910390a16001905095945050505050565b60036020528060005260406000206000915054906101000a900460ff1681565b60008060008060011515600360008773ffffffffffffffffffffffffffffffffffffffff1673ffffffffffffffffffffffffffffffffffffffff16815260200190815260200160002060009054906101000a900460ff1615151461093b57600080fd5b600260008673ffffffffffffffffffffffffffffffffffffffff1673ffffffffffffffffffffffffffffffffffffffff16815260200190815260200160002060000154600260008773ffffffffffffffffffffffffffffffffffffffff1673ffffffffffffffffffffffffffffffffffffffff16815260200190815260200160002060010154600260008873ffffffffffffffffffffffffffffffffffffffff1673ffffffffffffffffffffffffffffffffffffffff16815260200190815260200160002060020154600260008973ffffffffffffffffffffffffffffffffffffffff1673ffffffffffffffffffffffffffffffffffffffff168152602001908152602001600020600301549350935093509350919350919356fea265627a7a723158208ebfd576ff8ad619a31846b19e48ebfc239af1378fa2f2bdf0d0552c2719fc5d64736f6c63430005100032",
  "source": "pragma solidity ^0.5.0;\r\npragma experimental ABIEncoderV2;\r\n\r\nimport \"./FlipCoin.sol\";\r\nimport \"./Seller.sol\";\r\n\r\ncontract FlipBank {\r\n  address public owner; \r\n  string public name = \"FlipCoin Exchange\";\r\n  FlipCoin public flipcoin;\r\n  Seller public sellers;\r\n  uint public rate = 10**12;\r\n  mapping(string => address) public sellersInfo;\r\n\r\n  event CoinsPurchased(\r\n    address account,\r\n    uint amount,\r\n    uint rate\r\n  );\r\n\r\n  event CoinsSold(\r\n    address account,\r\n    uint amount,\r\n    uint rate\r\n  );\r\n\r\n  modifier onlyBy(address _account) {\r\n      require(\r\n         msg.sender == _account,\r\n         \"Sender not authorized.\"\r\n      );\r\n      _;\r\n   }\r\n\r\n  constructor() public {\r\n    owner = msg.sender;\r\n    flipcoin = new FlipCoin();\r\n    sellers = new Seller();\r\n  }\r\n\r\n  function mintCoins() public onlyBy(owner) payable returns (bool success){\r\n    flipcoin.mintCoins(msg.value / rate * 100);\r\n    return true;\r\n  }\r\n\r\n  function buyFlipCoins() public payable {\r\n    uint flipcoinAmount = msg.value / rate;\r\n    flipcoin.transfer(msg.sender, flipcoinAmount);\r\n    emit CoinsPurchased(msg.sender, msg.value, rate);\r\n  }\r\n\r\n  function sellFlipCoins(uint _amount) public {\r\n    require(flipcoin.balanceOf(msg.sender) >= _amount);\r\n\r\n    uint etherAmount = _amount * rate / 10;\r\n\r\n    require(address(this).balance >= etherAmount);\r\n\r\n    flipcoin.transferFrom(msg.sender, address(this), _amount);\r\n    msg.sender.transfer(etherAmount);\r\n    emit CoinsSold(msg.sender, etherAmount, rate);\r\n  }\r\n\r\n  function registerSeller(string memory brand, uint _offer_rate, uint _offer_cap, uint _receive_rate, uint _receive_cap) public returns (bool success) {\r\n    require(sellersInfo[brand] == address(0));\r\n    sellersInfo[brand] = msg.sender;\r\n    sellers.listSeller(msg.sender, _offer_rate, _offer_cap, _receive_rate, _receive_cap);\r\n    return true;\r\n  }\r\n\r\n  function updateSeller(string memory brand, uint _offer_rate, uint _offer_cap, uint _receive_rate, uint _receive_cap) public returns (bool success) {\r\n    require(sellersInfo[brand] == msg.sender);\r\n    sellers.editSeller(msg.sender, _offer_rate,_offer_cap, _receive_rate, _receive_cap);\r\n    return true;\r\n  }\r\n\r\n  function getSellerInfo(string memory brand) public view returns (uint _offer_rate, uint _offer_cap, uint _receive_rate, uint _receive_cap){\r\n    return sellers.getSellerInfo(sellersInfo[brand]);\r\n  }\r\n\r\n  function getValue(string memory key) public view returns (address a) {\r\n    return sellersInfo[key];\r\n  }\r\n\r\n  function rewardUser(uint _reward, string memory brand) public returns (bool success) {\r\n    require(flipcoin.getBalance(sellersInfo[brand]) >= _reward);\r\n    flipcoin.transferFrom(sellersInfo[brand], msg.sender, _reward);\r\n    return true;\r\n  }\r\n\r\n  function redeemCoins(uint _amount, string memory brand) public returns (bool success) {\r\n    require(flipcoin.getBalance(msg.sender) >= _amount);\r\n    flipcoin.transferFrom(msg.sender, sellersInfo[brand], _amount);\r\n    return true;\r\n  }\r\n\r\n  function getWalletBalance() public view returns (uint balance){\r\n    return flipcoin.getBalance(msg.sender);\r\n  }\r\n\r\n  function getSpendings() public view returns (uint spend) {\r\n    return flipcoin.getSpendings(msg.sender);\r\n  }\r\n}",
  "sourcePath": "C:\\Users\\rkr21\\OneDrive\\Desktop\\Grid\\FlipCoin\\client\\src\\contracts\\FlipBank.sol",
  "compiler": {
    "name": "solc",
    "version": "0.5.16+commit.9c3226ce.Emscripten.clang"
  },
  "schemaVersion": "3.4.15",
  "updatedAt": "2023-08-20T16:53:47.621Z",
  "networkType": "ethereum",
  "devdoc": {
    "methods": {}
  },
  "userdoc": {
    "methods": {}
  }
}